{"abi":[{"type":"constructor","inputs":[{"name":"_account","type":"address","internalType":"address"}],"stateMutability":"nonpayable"},{"type":"function","name":"account","inputs":[],"outputs":[{"name":"","type":"address","internalType":"address"}],"stateMutability":"view"},{"type":"function","name":"allowSelector","inputs":[{"name":"key","type":"address","internalType":"address"},{"name":"sel","type":"bytes4","internalType":"bytes4"},{"name":"allowed","type":"bool","internalType":"bool"}],"outputs":[],"stateMutability":"nonpayable"},{"type":"function","name":"allowTarget","inputs":[{"name":"key","type":"address","internalType":"address"},{"name":"target","type":"address","internalType":"address"},{"name":"allowed","type":"bool","internalType":"bool"}],"outputs":[],"stateMutability":"nonpayable"},{"type":"function","name":"consumeOrRevert","inputs":[{"name":"key","type":"address","internalType":"address"},{"name":"amount","type":"uint256","internalType":"uint256"},{"name":"timestamp","type":"uint48","internalType":"uint48"}],"outputs":[],"stateMutability":"nonpayable"},{"type":"function","name":"getSpendingStatus","inputs":[{"name":"key","type":"address","internalType":"address"},{"name":"timestamp","type":"uint48","internalType":"uint48"}],"outputs":[{"name":"cap","type":"uint256","internalType":"uint256"},{"name":"spent","type":"uint256","internalType":"uint256"},{"name":"remaining","type":"uint256","internalType":"uint256"}],"stateMutability":"view"},{"type":"function","name":"getWindowId","inputs":[{"name":"timestamp","type":"uint48","internalType":"uint48"}],"outputs":[{"name":"","type":"uint256","internalType":"uint256"}],"stateMutability":"pure"},{"type":"function","name":"grant","inputs":[{"name":"key","type":"address","internalType":"address"},{"name":"expiry","type":"uint64","internalType":"uint64"}],"outputs":[],"stateMutability":"nonpayable"},{"type":"function","name":"isTargetAllowed","inputs":[{"name":"key","type":"address","internalType":"address"},{"name":"target","type":"address","internalType":"address"}],"outputs":[{"name":"allowed","type":"bool","internalType":"bool"}],"stateMutability":"view"},{"type":"function","name":"isValidUserOp","inputs":[{"name":"userOpSignature","type":"bytes","internalType":"bytes"},{"name":"userOpHash","type":"bytes32","internalType":"bytes32"}],"outputs":[{"name":"","type":"bool","internalType":"bool"}],"stateMutability":"view"},{"type":"function","name":"recordSpending","inputs":[{"name":"key","type":"address","internalType":"address"},{"name":"amount","type":"uint256","internalType":"uint256"},{"name":"timestamp","type":"uint48","internalType":"uint48"}],"outputs":[],"stateMutability":"nonpayable"},{"type":"function","name":"revoke","inputs":[{"name":"key","type":"address","internalType":"address"}],"outputs":[],"stateMutability":"nonpayable"},{"type":"function","name":"selectorAllowed","inputs":[{"name":"key","type":"address","internalType":"address"},{"name":"sel","type":"bytes4","internalType":"bytes4"}],"outputs":[{"name":"allowed","type":"bool","internalType":"bool"}],"stateMutability":"view"},{"type":"function","name":"sessionExpiry","inputs":[{"name":"","type":"address","internalType":"address"}],"outputs":[{"name":"","type":"uint64","internalType":"uint64"}],"stateMutability":"view"},{"type":"function","name":"sessionKeyData","inputs":[{"name":"","type":"address","internalType":"address"}],"outputs":[{"name":"dailyCap","type":"uint256","internalType":"uint256"},{"name":"hasTargetRestrictions","type":"bool","internalType":"bool"}],"stateMutability":"view"},{"type":"function","name":"setSpendingCap","inputs":[{"name":"key","type":"address","internalType":"address"},{"name":"dailyCap","type":"uint256","internalType":"uint256"}],"outputs":[],"stateMutability":"nonpayable"},{"type":"function","name":"setTargetRestrictions","inputs":[{"name":"key","type":"address","internalType":"address"},{"name":"enabled","type":"bool","internalType":"bool"}],"outputs":[],"stateMutability":"nonpayable"},{"type":"function","name":"targetAllowed","inputs":[{"name":"","type":"address","internalType":"address"},{"name":"","type":"address","internalType":"address"}],"outputs":[{"name":"","type":"bool","internalType":"bool"}],"stateMutability":"view"},{"type":"function","name":"windowSpending","inputs":[{"name":"","type":"address","internalType":"address"},{"name":"","type":"uint256","internalType":"uint256"}],"outputs":[{"name":"","type":"uint256","internalType":"uint256"}],"stateMutability":"view"},{"type":"function","name":"wouldExceedCap","inputs":[{"name":"key","type":"address","internalType":"address"},{"name":"amount","type":"uint256","internalType":"uint256"},{"name":"timestamp","type":"uint48","internalType":"uint48"}],"outputs":[{"name":"wouldExceed","type":"bool","internalType":"bool"}],"stateMutability":"view"},{"type":"event","name":"AllowlistViolation","inputs":[{"name":"key","type":"address","indexed":true,"internalType":"address"},{"name":"target","type":"address","indexed":true,"internalType":"address"}],"anonymous":false},{"type":"event","name":"CapConsumed","inputs":[{"name":"key","type":"address","indexed":true,"internalType":"address"},{"name":"amount","type":"uint256","indexed":false,"internalType":"uint256"},{"name":"newTotal","type":"uint256","indexed":false,"internalType":"uint256"}],"anonymous":false},{"type":"event","name":"CapExceeded","inputs":[{"name":"key","type":"address","indexed":true,"internalType":"address"},{"name":"attempted","type":"uint256","indexed":false,"internalType":"uint256"},{"name":"cap","type":"uint256","indexed":false,"internalType":"uint256"}],"anonymous":false},{"type":"event","name":"SelectorAllowed","inputs":[{"name":"key","type":"address","indexed":true,"internalType":"address"},{"name":"sel","type":"bytes4","indexed":true,"internalType":"bytes4"},{"name":"allowed","type":"bool","indexed":false,"internalType":"bool"}],"anonymous":false},{"type":"event","name":"SessionCapSet","inputs":[{"name":"key","type":"address","indexed":true,"internalType":"address"},{"name":"dailyCap","type":"uint256","indexed":false,"internalType":"uint256"}],"anonymous":false},{"type":"event","name":"SessionGranted","inputs":[{"name":"key","type":"address","indexed":true,"internalType":"address"},{"name":"expiry","type":"uint64","indexed":false,"internalType":"uint64"}],"anonymous":false},{"type":"event","name":"SessionRevoked","inputs":[{"name":"key","type":"address","indexed":true,"internalType":"address"}],"anonymous":false},{"type":"event","name":"TargetAllowed","inputs":[{"name":"key","type":"address","indexed":true,"internalType":"address"},{"name":"target","type":"address","indexed":true,"internalType":"address"},{"name":"allowed","type":"bool","indexed":false,"internalType":"bool"}],"anonymous":false},{"type":"event","name":"TargetRestrictionsSet","inputs":[{"name":"key","type":"address","indexed":true,"internalType":"address"},{"name":"enabled","type":"bool","indexed":false,"internalType":"bool"}],"anonymous":false}],"bytecode":{"object":"0x60a0346100dc57601f61112938819003918201601f19168301916001600160401b038311848410176100e1578084926020946040528339810103126100dc57516001600160a01b0381168082036100dc57156100a85760805260405161103190816100f882396080518181816102dc015281816103f2015281816104a50152818161059801528181610683015281816106e2015281816107ee0152818161091c0152610a010152f35b60405162461bcd60e51b815260206004820152600c60248201526b1e995c9bc81858d8dbdd5b9d60a21b6044820152606490fd5b600080fd5b634e487b7160e01b600052604160045260246000fdfe608080604052600436101561001357600080fd5b60003560e01c90816305e5fa2f14610a96575080630f3556da14610a365780631711080d146109e957806322d08136146109b55780632a2314c11461098957806338cc7872146108c557806348d6bbca146107b9578063504d496b146106b25780635dab24201461066d5780635e8c18661461061257806374a8f103146105795780637ee1ce1d14610482578063c63a5d86146103aa578063d2b240e114610362578063d8899c0b14610288578063eb038861146101b8578063ed849f551461015c578063f5ced3f6146101185763ff1e9112146100f057600080fd5b3461011357602061010961010336610b09565b91610ed7565b6040519015158152f35b600080fd5b34610113576020366003190112610113576001600160a01b03610139610add565b166000526000602052602067ffffffffffffffff60406000205416604051908152f35b3461011357604036600319011261011357610175610add565b61017d610b51565b9060018060a01b0316600052600160205260406000209063ffffffff60e01b16600052602052602060ff604060002054166040519015158152f35b34610113576040366003190112610113576101d1610add565b6024359065ffffffffffff8216809203610113576001600160a01b0316600081815260026020526040902091620151809061020a610b68565b602060ff60018754978885520154161515910152049060005260036020526040600020906000526020526040600020549081811160001461027d578181039181831161026757606092905b60405192835260208301526040820152f35b634e487b7160e01b600052601160045260246000fd5b606091600090610255565b34610113576060366003190112610113576102a1610add565b6102a9610b51565b907f840b667f87738b9da1db624bc140d21f834cc7842dfc078ecadec9f6ec2c62ca60206102d5610b42565b9261030a337f00000000000000000000000000000000000000000000000000000000000000006001600160a01b031614610c78565b6001600160a01b03169261031f841515610ea0565b836000526001825260406000209463ffffffff60e01b16948560005282526103578160406000209060ff801983541691151516179055565b6040519015158152a3005b34610113576040366003190112610113576001600160a01b03610383610add565b16600052600360205260406000206024356000526020526020604060002054604051908152f35b3461011357620151807f07d29fe902c19439a8d8fda5b2a81cedb43480fe2ec625cdff236d6b276284ef604065ffffffffffff6103e636610b09565b919590929091610420337f00000000000000000000000000000000000000000000000000000000000000006001600160a01b031614610c78565b61042b841515610cb2565b16049360018060a01b03169384600052600360205282600020816000526020528260002061045a838254610cec565b90558460005260036020528260002090600052602052816000205482519182526020820152a2005b346101135760403660031901126101135761049b610add565b602435906104d3337f00000000000000000000000000000000000000000000000000000000000000006001600160a01b031614610c78565b6001600160a01b0316906104e8821515610ea0565b81600052600060205267ffffffffffffffff60406000205416156105425760207f18a494d71d2c80a6d163dc672af893c91b261f4829067887a8168048b274584291836000526002825280604060002055604051908152a2005b60405162461bcd60e51b815260206004820152600f60248201526e1ad95e481b9bdd0819dc985b9d1959608a1b6044820152606490fd5b3461011357602036600319011261011357610592610add565b6105c6337f00000000000000000000000000000000000000000000000000000000000000006001600160a01b031614610c78565b6001600160a01b03166000818152602081905260408120805467ffffffffffffffff191690557f2991ab7bfda4556c9e662762b3dfa89a1df391084c4278286d466c1c187e55239080a2005b346101135760403660031901126101135761062b610add565b610633610af3565b9060018060a01b0316600052600460205260406000209060018060a01b0316600052602052602060ff604060002054166040519015158152f35b34610113576000366003190112610113576040517f00000000000000000000000000000000000000000000000000000000000000006001600160a01b03168152602090f35b34610113576060366003190112610113576106cb610add565b6106d3610af3565b6106db610b42565b91610710337f00000000000000000000000000000000000000000000000000000000000000006001600160a01b031614610c78565b6001600160a01b031690610725821515610ea0565b6001600160a01b03169182156107865760207f0f89b9b3f51b332e771731693eb2252fedd0db543f62b3fb654a1e459bec49ad91836000526004825260406000208560005282526103578160406000209060ff801983541691151516179055565b60405162461bcd60e51b815260206004820152600b60248201526a1e995c9bc81d185c99d95d60aa1b6044820152606490fd5b34610113576040366003190112610113576107d2610add565b6024359067ffffffffffffffff82168092036101135761081c337f00000000000000000000000000000000000000000000000000000000000000006001600160a01b031614610c78565b6001600160a01b031690610831821515610ea0565b603c42018042116102675781111561088e5760207f0912f4d1d98ef9a44becd4b656f606db4d754f9dd9c16167263ea9c491ed155991836000526000825260406000208167ffffffffffffffff19825416179055604051908152a2005b60405162461bcd60e51b815260206004820152600f60248201526e32bc3834b93c903a37b79039b7b7b760891b6044820152606490fd5b34610113576040366003190112610113576108de610add565b6024359081151590818303610113577f3793edc39880f20ce83ae0d7bbb39a32d588e871b68f4f22935128b8d944fff3916020916109809061094a337f00000000000000000000000000000000000000000000000000000000000000006001600160a01b031614610c78565b6001600160a01b03169461095f861515610ea0565b856000526002845260016040600020019060ff801983541691151516179055565b604051908152a2005b346101135760403660031901126101135760206101096109a7610add565b6109af610af3565b90610e39565b346101135760203660031901126101135760043565ffffffffffff8116809103610113576201518060209104604051908152f35b3461011357610a346109fa36610b09565b91610a2f337f00000000000000000000000000000000000000000000000000000000000000006001600160a01b031614610c78565b610cf9565b005b346101135760403660031901126101135760043567ffffffffffffffff8111610113573660238201121561011357806004013567ffffffffffffffff81116101135736602482840101116101135760209161010991602480359201610b9e565b34610113576020366003190112610113576040906001600160a01b03610aba610add565b1660005260026020528160002060ff600182549201541690825215156020820152f35b600435906001600160a01b038216820361011357565b602435906001600160a01b038216820361011357565b6060906003190112610113576004356001600160a01b038116810361011357906024359060443565ffffffffffff811681036101135790565b60443590811515820361011357565b602435906001600160e01b03198216820361011357565b604051906040820182811067ffffffffffffffff821117610b8857604052565b634e487b7160e01b600052604160045260246000fd5b917f19457468657265756d205369676e6564204d6573736167653a0a333200000000600052601c52603c60002067ffffffffffffffff8211610b885760405191601f8101601f19908116603f0116830167ffffffffffffffff811184821017610b8857604052808352368185011161011357602081600092610c27968387013784010152610f53565b506004811015610c6257610c5c576001600160a01b031660009081526020819052604090205467ffffffffffffffff16151590565b50600090565b634e487b7160e01b600052602160045260246000fd5b15610c7f57565b60405162461bcd60e51b815260206004820152600b60248201526a1b9bdd081858d8dbdd5b9d60aa1b6044820152606490fd5b15610cb957565b60405162461bcd60e51b815260206004820152600b60248201526a1e995c9bc8185b5bdd5b9d60aa1b6044820152606490fd5b9190820180921161026757565b610d04821515610cb2565b6001600160a01b031660008181526002602052604090209092610d25610b68565b9160ff60018254928386520154161515602084015215610e335765ffffffffffff62015180911604836000526003602052604060002081600052602052610d7183604060002054610cec565b9151808311610dc85750916040917f07d29fe902c19439a8d8fda5b2a81cedb43480fe2ec625cdff236d6b276284ef93856000526003602052836000209060005260205280836000205582519182526020820152a2565b7fc2373395179af6c39f367d2c3bc2a1001ac3bf9a6b3fea1531486f15ca6bc6d0604085879382519182526020820152a260405162461bcd60e51b815260206004820152601260248201527111185a5b1e4818d85c08195e18d95959195960721b6044820152606490fd5b50505050565b6001600160a01b0316600081815260026020526040902060ff6001610e5c610b68565b9280548452015416159060208215910152610e9957600052600460205260406000209060018060a01b031660005260205260ff6040600020541690565b5050600190565b15610ea757565b60405162461bcd60e51b81526020600482015260086024820152677a65726f206b657960c01b6044820152606490fd5b6001600160a01b03166000818152600260205260409020929190610ef9610b68565b9360ff60018254928388520154161515602086015215610f4a576201518065ffffffffffff610f44941604906000526003602052604060002090600052602052604060002054610cec565b90511090565b50505050600090565b8151919060418303610f8457610f7d92506020820151906060604084015193015160001a90610f8f565b9192909190565b505060009160029190565b91907f7fffffffffffffffffffffffffffffff5d576e7357a4501ddfe92f46681b20a08411611018579160209360809260ff60009560405194855216868401526040830152606082015282805260015afa1561100c576000516001600160a01b038116156110005790600090600090565b50600090600190600090565b6040513d6000823e3d90fd5b5050506000916003919056fea164736f6c634300081e000a","linkReferences":{}},"methodIdentifiers":{"account()":"5dab2420","allowSelector(address,bytes4,bool)":"d8899c0b","allowTarget(address,address,bool)":"504d496b","consumeOrRevert(address,uint256,uint48)":"1711080d","getSpendingStatus(address,uint48)":"eb038861","getWindowId(uint48)":"22d08136","grant(address,uint64)":"48d6bbca","isTargetAllowed(address,address)":"2a2314c1","isValidUserOp(bytes,bytes32)":"0f3556da","recordSpending(address,uint256,uint48)":"c63a5d86","revoke(address)":"74a8f103","selectorAllowed(address,bytes4)":"ed849f55","sessionExpiry(address)":"f5ced3f6","sessionKeyData(address)":"05e5fa2f","setSpendingCap(address,uint256)":"7ee1ce1d","setTargetRestrictions(address,bool)":"38cc7872","targetAllowed(address,address)":"5e8c1866","windowSpending(address,uint256)":"d2b240e1","wouldExceedCap(address,uint256,uint48)":"ff1e9112"},"id":43}