{"abi":[{"type":"constructor","inputs":[{"name":"_owner","type":"address","internalType":"address"}],"stateMutability":"nonpayable"},{"type":"receive","stateMutability":"payable"},{"type":"function","name":"addModule","inputs":[{"name":"module","type":"address","internalType":"address"}],"outputs":[],"stateMutability":"nonpayable"},{"type":"function","name":"addValidator","inputs":[{"name":"validator","type":"address","internalType":"address"}],"outputs":[],"stateMutability":"nonpayable"},{"type":"function","name":"authorizedRecoveryModules","inputs":[{"name":"","type":"address","internalType":"address"}],"outputs":[{"name":"","type":"bool","internalType":"bool"}],"stateMutability":"view"},{"type":"function","name":"entryPoint","inputs":[],"outputs":[{"name":"","type":"address","internalType":"address"}],"stateMutability":"view"},{"type":"function","name":"execute","inputs":[{"name":"target","type":"address","internalType":"address"},{"name":"value","type":"uint256","internalType":"uint256"},{"name":"data","type":"bytes","internalType":"bytes"}],"outputs":[{"name":"result","type":"bytes","internalType":"bytes"}],"stateMutability":"payable"},{"type":"function","name":"executeBatch","inputs":[{"name":"calls","type":"tuple[]","internalType":"struct SmartAccount.Call[]","components":[{"name":"target","type":"address","internalType":"address"},{"name":"value","type":"uint256","internalType":"uint256"},{"name":"data","type":"bytes","internalType":"bytes"}]}],"outputs":[{"name":"results","type":"bytes[]","internalType":"bytes[]"}],"stateMutability":"payable"},{"type":"function","name":"executeWithSessionKey","inputs":[{"name":"sessionKey","type":"address","internalType":"address"},{"name":"target","type":"address","internalType":"address"},{"name":"value","type":"uint256","internalType":"uint256"},{"name":"data","type":"bytes","internalType":"bytes"},{"name":"windowId","type":"uint256","internalType":"uint256"}],"outputs":[{"name":"result","type":"bytes","internalType":"bytes"}],"stateMutability":"payable"},{"type":"function","name":"getModuleAt","inputs":[{"name":"index","type":"uint256","internalType":"uint256"}],"outputs":[{"name":"","type":"address","internalType":"address"}],"stateMutability":"view"},{"type":"function","name":"getModuleCount","inputs":[],"outputs":[{"name":"","type":"uint256","internalType":"uint256"}],"stateMutability":"view"},{"type":"function","name":"getModules","inputs":[],"outputs":[{"name":"","type":"address[]","internalType":"address[]"}],"stateMutability":"view"},{"type":"function","name":"getValidators","inputs":[],"outputs":[{"name":"","type":"address[]","internalType":"address[]"}],"stateMutability":"view"},{"type":"function","name":"isModule","inputs":[{"name":"module","type":"address","internalType":"address"}],"outputs":[{"name":"","type":"bool","internalType":"bool"}],"stateMutability":"view"},{"type":"function","name":"isValidSignature","inputs":[{"name":"hash","type":"bytes32","internalType":"bytes32"},{"name":"signature","type":"bytes","internalType":"bytes"}],"outputs":[{"name":"","type":"bytes4","internalType":"bytes4"}],"stateMutability":"view"},{"type":"function","name":"isValidator","inputs":[{"name":"validator","type":"address","internalType":"address"}],"outputs":[{"name":"","type":"bool","internalType":"bool"}],"stateMutability":"view"},{"type":"function","name":"owner","inputs":[],"outputs":[{"name":"","type":"address","internalType":"address"}],"stateMutability":"view"},{"type":"function","name":"removeModule","inputs":[{"name":"module","type":"address","internalType":"address"}],"outputs":[],"stateMutability":"nonpayable"},{"type":"function","name":"removeValidator","inputs":[{"name":"validator","type":"address","internalType":"address"}],"outputs":[],"stateMutability":"nonpayable"},{"type":"function","name":"setEntryPoint","inputs":[{"name":"_entryPoint","type":"address","internalType":"address"}],"outputs":[],"stateMutability":"nonpayable"},{"type":"function","name":"setRecoveryModule","inputs":[{"name":"module","type":"address","internalType":"address"},{"name":"authorized","type":"bool","internalType":"bool"}],"outputs":[],"stateMutability":"nonpayable"},{"type":"function","name":"transferOwnership","inputs":[{"name":"newOwner","type":"address","internalType":"address"}],"outputs":[],"stateMutability":"nonpayable"},{"type":"function","name":"transferOwnershipFromRecovery","inputs":[{"name":"newOwner","type":"address","internalType":"address"},{"name":"recoveryModule","type":"address","internalType":"address"}],"outputs":[],"stateMutability":"nonpayable"},{"type":"function","name":"validateUserOp","inputs":[{"name":"userOp","type":"tuple","internalType":"struct UserOperation","components":[{"name":"sender","type":"address","internalType":"address"},{"name":"nonce","type":"uint256","internalType":"uint256"},{"name":"initCode","type":"bytes","internalType":"bytes"},{"name":"callData","type":"bytes","internalType":"bytes"},{"name":"callGasLimit","type":"uint256","internalType":"uint256"},{"name":"verificationGasLimit","type":"uint256","internalType":"uint256"},{"name":"preVerificationGas","type":"uint256","internalType":"uint256"},{"name":"maxFeePerGas","type":"uint256","internalType":"uint256"},{"name":"maxPriorityFeePerGas","type":"uint256","internalType":"uint256"},{"name":"paymasterAndData","type":"bytes","internalType":"bytes"},{"name":"signature","type":"bytes","internalType":"bytes"}]},{"name":"userOpHash","type":"bytes32","internalType":"bytes32"},{"name":"missingFunds","type":"uint256","internalType":"uint256"}],"outputs":[{"name":"validationData","type":"uint256","internalType":"uint256"}],"stateMutability":"nonpayable"},{"type":"event","name":"EntryPointSet","inputs":[{"name":"entryPoint","type":"address","indexed":true,"internalType":"address"}],"anonymous":false},{"type":"event","name":"Executed","inputs":[{"name":"target","type":"address","indexed":false,"internalType":"address"},{"name":"value","type":"uint256","indexed":false,"internalType":"uint256"},{"name":"data","type":"bytes","indexed":false,"internalType":"bytes"},{"name":"result","type":"bytes","indexed":false,"internalType":"bytes"}],"anonymous":false},{"type":"event","name":"ModuleAdded","inputs":[{"name":"module","type":"address","indexed":true,"internalType":"address"}],"anonymous":false},{"type":"event","name":"ModulePostExecuteFailed","inputs":[{"name":"module","type":"address","indexed":true,"internalType":"address"},{"name":"target","type":"address","indexed":false,"internalType":"address"}],"anonymous":false},{"type":"event","name":"ModuleRemoved","inputs":[{"name":"module","type":"address","indexed":true,"internalType":"address"}],"anonymous":false},{"type":"event","name":"OwnerChanged","inputs":[{"name":"oldOwner","type":"address","indexed":true,"internalType":"address"},{"name":"newOwner","type":"address","indexed":true,"internalType":"address"}],"anonymous":false},{"type":"event","name":"RecoveryModuleSet","inputs":[{"name":"module","type":"address","indexed":true,"internalType":"address"},{"name":"authorized","type":"bool","indexed":false,"internalType":"bool"}],"anonymous":false},{"type":"event","name":"ValidatorAdded","inputs":[{"name":"validator","type":"address","indexed":true,"internalType":"address"}],"anonymous":false},{"type":"event","name":"ValidatorRemoved","inputs":[{"name":"validator","type":"address","indexed":true,"internalType":"address"}],"anonymous":false},{"type":"error","name":"BlockedByModule","inputs":[]},{"type":"error","name":"ModuleAlreadyAdded","inputs":[]},{"type":"error","name":"ModuleNotFound","inputs":[]},{"type":"error","name":"ReentrancyGuardReentrantCall","inputs":[]},{"type":"error","name":"SpendingLimitExceeded","inputs":[]}],"bytecode":{"object":"0x60803460d157601f612a1438819003918201601f19168301916001600160401b0383118484101760d65780849260209460405283398101031260d157516001600160a01b0381169081900360d15760016004558015609f57600580546001600160a01b031916821790556040519060007fb532073b38c83145e3e5135377a08bf9aab55bc0fd7c1179cd4fb995d2a5159c8180a361292790816100ed8239f35b60405162461bcd60e51b815260206004820152600a6024820152693d32b9379037bbb732b960b11b6044820152606490fd5b600080fd5b634e487b7160e01b600052604160045260246000fdfe608080604052600436101561001d575b50361561001b57600080fd5b005b60003560e01c9081630aa695a41461185d575080630d0b6ff61461180c5780631626ba7e146117bb5780631ed86f19146116e55780632b4a83f4146115dc57806334fcd5be146110175780633a871cdd14610f8057806340a141ff14610df257806342f6e38914610dae5780634d238c8e14610c3457806357d5626714610c16578063584465f214610b405780635d080c5314610a3c5780638da5cb5b14610a13578063a063246114610979578063a7e0fd4714610536578063b0d691fe1461050d578063b2494df3146104f1578063b61d27f61461022e578063b7ab4db514610202578063f2fde38b146101605763facd743b1461011c573861000f565b3461015b57602036600319011261015b576001600160a01b0361013d611898565b166000526002602052602060ff604060002054166040519015158152f35b600080fd5b3461015b57602036600319011261015b57610179611898565b6006546001600160a01b0316331480156101ee575b61019790611bad565b6001600160a01b03166101ab8115156123ff565b600554816001600160a01b0382167fb532073b38c83145e3e5135377a08bf9aab55bc0fd7c1179cd4fb995d2a5159c600080a36001600160a01b03191617600555005b506005546001600160a01b0316331461018e565b3461015b57600036600319011261015b5761022a61021e6124a3565b60405191829182611932565b0390f35b606036600319011261015b57610242611898565b602435906044356001600160401b03811161015b576102659036906004016118c4565b9060018060a01b0360065416331480156104dd575b61028390611bad565b61028b612535565b6001600160a01b038316926102a1841515611ccc565b6102ad60085415611c33565b6102b56127a3565b94600160085560005b865181101561036d576001600160a01b036102d982896119e8565b51166020604051809263b2ec6e4960e01b8252816000816103018c8c8b8d3360048701612438565b03925af190811561036157600091610333575b5015610322576001016102be565b635031216760e11b60005260046000fd5b610354915060203d811161035a575b61034c8183611975565b810190611a12565b88610314565b503d610342565b6040513d6000823e3d90fd5b50849192869160006008556000806040518885823780898101838152039084895af1906103a161039b611d38565b92612469565b7fe39b605d485d947e52b62c3b5028a14d5277db44425263c74171a85707154334604051806103d4858b88878d86611d68565b0390a1806104ce575b600160085560005b84518110156104ae5787906020856001600160a01b03610405848a6119e8565b51168560008c61042d8a604051998a9788968795630627a5b160e41b87523360048801611da4565b03925af1801561036157600192600091610490575b501561044f575b016103e5565b818060a01b0361045f82886119e8565b51167f5596a5119e32ef6012c08e3dabf04d4aa19e9cf49570d40c4bac9ea0a6286a6d60206040518a8152a2610449565b6104a8915060203d811161035a5761034c8183611975565b8a610442565b600060085560016004556040516020808252819061022a908201866118f1565b6104d8813361258a565b6103dd565b506005546001600160a01b0316331461027a565b3461015b57600036600319011261015b5761022a61021e6127a3565b3461015b57600036600319011261015b576006546040516001600160a01b039091168152602090f35b60a036600319011261015b5761054a611898565b6105526118ae565b90604435916064356001600160401b03811161015b576105769036906004016118c4565b916084359460018060a01b036006541633148015610965575b61059890611bad565b6105a0612535565b6001600160a01b0382166105b5811515611ccc565b6001600160a01b038616801561092d576105d160085415611c33565b6105d96127a3565b91600160085560005b835181101561066757876020886001600160a01b0361060185896119e8565b51168860008b6106286040519788968795869463b2ec6e4960e01b86523360048701612438565b03925af190811561036157600091610649575b5015610322576001016105e2565b610661915060203d811161035a5761034c8183611975565b8b61063b565b509287899692966000600855826107ab575b50509091929394506000806040518885823780898101838152039084895af1906106a461039b611d38565b7fe39b605d485d947e52b62c3b5028a14d5277db44425263c74171a85707154334604051806106d7858b88878d86611d68565b0390a1600160085560005b84518110156104ae5787906020856001600160a01b03610702848a6119e8565b51168560008c61072a8a604051998a9788968795630627a5b160e41b87523360048801611da4565b03925af180156103615760019260009161078d575b501561074c575b016106e2565b818060a01b0361075c82886119e8565b51167f5596a5119e32ef6012c08e3dabf04d4aa19e9cf49570d40c4bac9ea0a6286a6d60206040518a8152a2610746565b6107a5915060203d811161035a5761034c8183611975565b8a61073f565b6107b36124a3565b60005b815181101561091e576001600160a01b036107d182846119e8565b511660208b602460405180948193637ae769fb60e11b835260048301525afa600091816108ee575b50610808575b506001016107b6565b6001600160401b031680151590816108e4575b50610826578b6107ff565b90919293949596979850620151808302928084046201518014901517156108ce576001600160a01b039161085a91906119e8565b511690813b1561015b57604051631711080d60e01b81526001600160a01b039390931660048401526024830184905265ffffffffffff1660448301526000908290606490829084905af18015610361576108bd575b505b90849392918780610679565b60006108c891611975565b866108af565b634e487b7160e01b600052601160045260246000fd5b905042108c61081b565b61091091925060203d8111610917575b6109088183611975565b810190611ded565b908d6107f9565b503d6108fe565b505050509091929394506108b1565b60405162461bcd60e51b815260206004820152601060248201526f7a65726f2073657373696f6e206b657960801b6044820152606490fd5b506005546001600160a01b0316331461058f565b3461015b57602036600319011261015b57610992611898565b6006546001600160a01b0316331480156109ff575b6109b090611bad565b6001600160a01b03166109c28161285f565b156109ee577f0a1ee69f55c33d8467c69ca59ce2007a737a88603d75392972520bf67cb513b8600080a2005b631c94b02360e21b60005260046000fd5b506005546001600160a01b031633146109a7565b3461015b57600036600319011261015b576005546040516001600160a01b039091168152602090f35b3461015b57604036600319011261015b57610a55611898565b6001600160a01b03610a656118ae565b16803303610afb57610a8c610a87826000526001602052604060002054151590565b611be7565b600052600760205260ff6040600020541615610ab6576001600160a01b03166101ab8115156123ff565b60405162461bcd60e51b815260206004820152601b60248201527f4e6f7420617574686f72697a656420666f72207265636f7665727900000000006044820152606490fd5b60405162461bcd60e51b815260206004820152601760248201527f496e76616c6964207265636f76657279206d6f64756c650000000000000000006044820152606490fd5b3461015b57602036600319011261015b57610b59611898565b6005546001600160a01b03163303610be5576001600160a01b03168015610bb357600680546001600160a01b031916821790557f41e2b4fb9d855f284604e7592c9eeb72789d1f68bcc53c34f036de5dbb59dcd8600080a2005b60405162461bcd60e51b815260206004820152600a6024820152697a65726f20656e74727960b01b6044820152606490fd5b60405162461bcd60e51b81526020600482015260096024820152683737ba1037bbb732b960b91b6044820152606490fd5b3461015b57600036600319011261015b576020600054604051908152f35b3461015b57602036600319011261015b57610c4d611898565b6006546001600160a01b031633148015610d9a575b610c6b90611bad565b6001600160a01b038116908115610d645781600052600260205260ff60406000205416610d2f578160005260026020526040600020600160ff1982541617905560035490600160401b821015610d1957610cce826001610cf29401600355612557565b81546001600160a01b0393841660039290921b91821b9390911b1916919091179055565b7fe366c1c0452ed8eec96861e9e54141ebff23c9ec89fe27b996b45f5ec3884987600080a2005b634e487b7160e01b600052604160045260246000fd5b60405162461bcd60e51b815260206004820152600d60248201526c185b1c9958591e481859191959609a1b6044820152606490fd5b60405162461bcd60e51b815260206004820152600e60248201526d3d32b937903b30b634b230ba37b960911b6044820152606490fd5b506005546001600160a01b03163314610c62565b3461015b57602036600319011261015b576020610de86001600160a01b03610dd4611898565b166000526001602052604060002054151590565b6040519015158152f35b3461015b57602036600319011261015b57610e0b611898565b6006546001600160a01b031633148015610f6c575b610e2990611bad565b6001600160a01b031660008181526002602052604090205460ff1615610f3b576000818152600260205260408120805460ff191690555b6003549081811015610f345782610e7682612557565b905460039190911b1c6001600160a01b031614610e97576001915001610e60565b60001982019182116108ce57610cce610eb2610eca93612557565b905460039190911b1c6001600160a01b031691612557565b6003548015610f1e5760001901610ee081612557565b81546001600160a01b03600392831b1b1916909155555b7fe1434e25d6611e0db941968fdc97811c982ac1602e951637d206f5fdda9dd8f1600080a2005b634e487b7160e01b600052603160045260246000fd5b5050610ef7565b60405162461bcd60e51b81526020600482015260096024820152681b9bdd08199bdd5b9960ba1b6044820152606490fd5b506005546001600160a01b03163314610e20565b3461015b57606036600319011261015b576004356001600160401b03811161015b57610160600319823603011261015b576006546001600160a01b03163303610fe157610fd96020916044359060243590600401611e20565b604051908152f35b60405162461bcd60e51b815260206004820152600e60248201526d1b9bdd08195b9d1c9e5c1bda5b9d60921b6044820152606490fd5b602036600319011261015b576004356001600160401b03811161015b573660238201121561015b578060040135906001600160401b03821161015b576024810190602436918460051b01011161015b576006546001600160a01b0316331480156115c8575b61108590611bad565b61108d612535565b61109960085415611c33565b6110a282611c7f565b906110b06040519283611975565b828252601f196110bf84611c7f565b0160005b8181106115b75750506110d46127a3565b6000805b85811061159557508061148b575b506000905b84821061115f578360016004556040518091602082016020835281518091526040830190602060408260051b8601019301916000905b82821061113057505050500390f35b9193600191939550602061114f8192603f198a820301865288516118f1565b9601920192018594939192611121565b6111856001600160a01b0361117d611178858988611c96565b611cb8565b161515611ccc565b600160085560005b815181101561125c5761121d60206001600160a01b036111ad84866119e8565b51166111bd611178878b8a611c96565b9060006111d86111ce898d8c611c96565b6040810190611d06565b60405163b2ec6e4960e01b81523360048201526001600160a01b0390951660248601526044850183905260806064860152939586948593928492916084840191611a2a565b03925af19081156103615760009161123e575b50156103225760010161118d565b611256915060203d811161035a5761034c8183611975565b87611230565b50909392936000600855600080611277611178848888611c96565b6020611284858989611c96565b01356112946111ce868a8a611c96565b9190826040519384928337810185815203925af1946112b1611d38565b951561145257856112c283836119e8565b526112cd82826119e8565b507fe39b605d485d947e52b62c3b5028a14d5277db44425263c74171a857071543346112fd611178848888611c96565b602061130a858989611c96565b01359061132c8961131f6111ce888c8c611c96565b9060405195869586611d68565b0390a1600160085560005b8351811015611440576113aa906020886001600160a01b0361135984896119e8565b51168860008b6113896111ce8b611374611178828689611c96565b938961138183838a611c96565b013596611c96565b989095604051998a9788968795630627a5b160e41b87523360048801611da4565b03925af1801561036157600192600091611422575b50156113cc575b01611337565b818060a01b036113dc82876119e8565b51167f5596a5119e32ef6012c08e3dabf04d4aa19e9cf49570d40c4bac9ea0a6286a6d602061140f611178888c8c611c96565b60405190868060a01b03168152a26113c6565b61143a915060203d811161035a5761034c8183611975565b896113bf565b506000600855939450600101906110eb565b60405162461bcd60e51b815260206004820152601160248201527018985d18da0818d85b1b0819985a5b1959607a1b6044820152606490fd5b926000949192945b835181101561158a576001600160a01b036114ae82866119e8565b5116803b1561015b5760008091604460405180948193623f58db60e21b83523360048401528b60248401525af19081611579575b50611571576114ef611d38565b80516004811091821561150a575b5050506001905b01611493565b602001516001600160e01b0319811692611551575b50506001600160e01b03191663454f38f560e11b14611540578680806114fd565b63454f38f560e11b60005260046000fd5b6001600160e01b031960049290920360031b82901b16169050878061151f565b600190611504565b600061158491611975565b876114e2565b5092509290846110e6565b9060206115a3838887611c96565b013581018091116108ce57906001016110d8565b8060606020809387010152016110c3565b506005546001600160a01b0316331461107c565b3461015b57604036600319011261015b576115f5611898565b602435908115159081830361015b576006546001600160a01b0316331480156116d1575b61162290611bad565b6001600160a01b031691821561169e577f0825d73ed5444b1a2387aa29a2666ecefc6216328b5b19825fcf095f5674cb049160209161167f575b8360005260078252604060002060ff1981541660ff8316179055604051908152a2005b611699610a87856000526001602052604060002054151590565b61165c565b60405162461bcd60e51b815260206004820152600b60248201526a7a65726f206d6f64756c6560a81b6044820152606490fd5b506005546001600160a01b03163314611619565b3461015b57602036600319011261015b576116fe611898565b6006546001600160a01b0316331480156117a7575b61171c90611bad565b6001600160a01b0316801561177157611734816127ed565b15611760577fead6a006345da1073a106d5f32372d2d2204f46cb0b4bca8f5ebafcbbed12b8a600080a2005b63079f102d60e51b60005260046000fd5b60405162461bcd60e51b815260206004820152600e60248201526d496e76616c6964206d6f64756c6560901b6044820152606490fd5b506005546001600160a01b03163314611713565b3461015b57604036600319011261015b576024356001600160401b03811161015b576117f96117f060209236906004016118c4565b90600435611a68565b6040516001600160e01b03199091168152f35b3461015b57602036600319011261015b5760043560009081548110156118495781805260209182902001546040516001600160a01b039091168152f35b634e487b7160e01b82526032600452602482fd5b3461015b57602036600319011261015b576020906001600160a01b03611881611898565b166000526007825260ff6040600020541615158152f35b600435906001600160a01b038216820361015b57565b602435906001600160a01b038216820361015b57565b9181601f8401121561015b578235916001600160401b03831161015b576020838186019501011161015b57565b919082519283825260005b84811061191d575050826000602080949584010152601f8019910116010190565b806020809284010151828286010152016118fc565b602060408183019282815284518094520192019060005b8181106119565750505090565b82516001600160a01b0316845260209384019390920191600101611949565b90601f801991011681019081106001600160401b03821117610d1957604052565b6001600160401b038111610d1957601f01601f191660200190565b9291926119bd82611996565b916119cb6040519384611975565b82948184528183011161015b578281602093846000960137010152565b80518210156119fc5760209160051b010190565b634e487b7160e01b600052603260045260246000fd5b9081602091031261015b5751801515810361015b5790565b908060209392818452848401376000828201840152601f01601f1916010190565b939291602091611a6391604087526040870191611a2a565b930152565b9190917f19457468657265756d205369676e6564204d6573736167653a0a33320000000060005280601c52611aac603c600020611aa63685876119b1565b906124f9565b506004811015611b9757159081611b7e575b50611b6f57611acb6124a3565b9060005b8251811015611b5d576001600160a01b03611aea82856119e8565b51166020604051809263079aab6d60e11b82528180611b0e888b8d60048501611a4b565b03915afa90811561036157600091611b3f575b50611b2e57600101611acf565b50630b135d3f60e11b949350505050565b611b57915060203d811161035a5761034c8183611975565b38611b21565b506001600160e01b0319949350505050565b50630b135d3f60e11b92915050565b6005546001600160a01b03918216911614905038611abe565b634e487b7160e01b600052602160045260246000fd5b15611bb457565b60405162461bcd60e51b815260206004820152600b60248201526a1b9bdd08185b1b1bddd95960aa1b6044820152606490fd5b15611bee57565b60405162461bcd60e51b815260206004820152601760248201527f4e6f7420612072656769737465726564206d6f64756c650000000000000000006044820152606490fd5b15611c3a57565b60405162461bcd60e51b815260206004820152601a60248201527f4d6f64756c65207265656e7472616e63792064657465637465640000000000006044820152606490fd5b6001600160401b038111610d195760051b60200190565b91908110156119fc5760051b81013590605e198136030182121561015b570190565b356001600160a01b038116810361015b5790565b15611cd357565b60405162461bcd60e51b815260206004820152600b60248201526a1e995c9bc81d185c99d95d60aa1b6044820152606490fd5b903590601e198136030182121561015b57018035906001600160401b03821161015b5760200191813603831361015b57565b3d15611d63573d90611d4982611996565b91611d576040519384611975565b82523d6000602084013e565b606090565b93611d9392611da196949260018060a01b031686526020860152608060408601526080850191611a2a565b9160608184039101526118f1565b90565b6001600160a01b03918216815291166020820152604081019190915260a060608201819052611da19491939192611ddf929185019190611a2a565b9160808184039101526118f1565b9081602091031261015b57516001600160401b038116810361015b5790565b35906001600160a01b038216820361015b57565b909160009182937f19457468657265756d205369676e6564204d6573736167653a0a333200000000845280601c52603c8420611e6f610140840191611aa6611e688487611d06565b36916119b1565b5060048110156123eb571590816123d2575b506123c9575b8415611ef6575b505050611eb15715611eab5760a01b65ffffffffffff60a01b1690565b50600190565b60405162461bcd60e51b815260206004820152601f60248201527f496e73756666696369656e7420456e747279506f696e74206465706f736974006044820152606490fd5b611f019594956124a3565b9160005b83518110156123bc57611f506020836001600160a01b03611f2685896119e8565b5116611f32878a611d06565b60405163079aab6d60e11b8152958694859384939060048501611a4b565b03915afa9081156103615760009161239e575b50611f72576001905b01611f05565b7f19457468657265756d205369676e6564204d6573736167653a0a33320000000060005281601c52611faf603c600020611aa6611e688689611d06565b506004811015611b975715611fd4575b5050505050509091506001905b388080611e8e565b602460206001600160a01b03611fea85896119e8565b51604051637ae769fb60e11b81526001600160a01b03909516600486018190529493849290918391165afa6000918161237e575b5061236e575b50602460206001600160a01b0361203b85896119e8565b511660405192838092637ae769fb60e11b82528660048301525afa6000918161234e575b5061206b575b50611fbf565b6001600160401b0316151580612335575b612087575b80612065565b606086016120958188611d06565b6001600160e01b031991359182169160048210612315575b506044905060206001600160a01b036120c6878b6119e8565b5116926040519283809263ed849f5560e01b825288600483015263ffffffff60e01b16958660248301525afa908115610361576000916122f7575b50156122ec5763a7e0fd4760e01b1461211b575b50612081565b6121259087611d06565b8060041161015b5781019060a0818303600319011261015b5761214a60048201611e0c565b61215660248301611e0c565b9260648301356001600160401b03811161015b578301908060238301121561015b57816024600461218a94013591016119b1565b506001600160a01b0316926084820135908490036122e057620151808102908082046201518014901517156108ce5760209060449065ffffffffffff6001600160a01b036121d8898d6119e8565b5160405160016270b77760e11b031981526001600160a01b038a16600482015296909401356024870152911665ffffffffffff16604485015283911681806064810103915afa908115610361576000916122c2575b506122b85760209060446001600160a01b03612249868a6119e8565b51604051632a2314c160e01b815260048101969096526001600160a01b03909316602486015284928391165afa9081156103615760009161229a575b5015612292578080612115565b600190611f6c565b6122b2915060203d811161035a5761034c8183611975565b38612285565b5050600190611f6c565b6122da915060203d811161035a5761034c8183611975565b3861222d565b50505050600190611f6c565b505050600190611f6c565b61230f915060203d811161035a5761034c8183611975565b38612101565b6001600160e01b031960049290920360031b82901b1616905038806120ad565b5060046123456060880188611d06565b9050101561207c565b61236791925060203d8111610917576109088183611975565b903861205f565b65ffffffffffff16975038612024565b61239791925060203d8111610917576109088183611975565b903861201e565b6123b6915060203d811161035a5761034c8183611975565b38611f63565b5050505050919091611fcc565b60019450611e87565b6005546001600160a01b03918216911614905038611e81565b634e487b7160e01b87526021600452602487fd5b1561240657565b60405162461bcd60e51b815260206004820152600a6024820152693d32b9379037bbb732b960b11b6044820152606490fd5b6001600160a01b039182168152911660208201526040810191909152608060608201819052611da193910191611a2a565b1561247057565b60405162461bcd60e51b815260206004820152600b60248201526a18d85b1b0819985a5b195960aa1b6044820152606490fd5b604051906003548083528260208101600360005260206000209260005b8181106124d75750506124d592500383611975565b565b84546001600160a01b03168352600194850194879450602090930192016124c0565b815191906041830361252a5761252392506020820151906060604084015193015160001a9061271a565b9192909190565b505060009160029190565b600260045414612546576002600455565b633ee5aeb560e01b60005260046000fd5b6003548110156119fc57600360005260206000200190600090565b80548210156119fc5760005260206000200190600090565b6005546001600160a01b038281169391168314612715576040516003548082528160208101600360005260206000209260005b8181106126f35750506125d292500382611975565b60005b81518110156126ec57602460206001600160a01b036125f484866119e8565b511660405192838092637ae769fb60e11b82528a60048301525afa600091816126cc575b50612627575b506001016125d5565b6001600160401b031680151590816126c2575b50612645573861261e565b92935090916001600160a01b039161265d91906119e8565b511691823b1561015b5760405163631d2ec360e11b81526001600160a01b03919091166004820152602481019190915265ffffffffffff42166044820152906000908290606490829084905af18015610361576126b75750565b60006124d591611975565b905042103861263a565b6126e591925060203d8111610917576109088183611975565b9038612618565b5050505050565b84546001600160a01b03168352600194850194869450602090930192016125bd565b505050565b91907f7fffffffffffffffffffffffffffffff5d576e7357a4501ddfe92f46681b20a08411612797579160209360809260ff60009560405194855216868401526040830152606082015282805260015afa15610361576000516001600160a01b0381161561278b5790600090600090565b50600090600190600090565b50505060009160039190565b6040519060005480835282602081016000805260206000209260005b8181106127d45750506124d592500383611975565b84548352600194850194879450602090930192016127bf565b8060005260016020526040600020541560001461285957600054600160401b811015610d19576128406128298260018594016000556000612572565b819391549060031b91821b91600019901b19161790565b9055600054906000526001602052604060002055600190565b50600090565b60008181526001602052604090205480156129135760001981018181116108ce576000546000198101919082116108ce578181036128d9575b5050506000548015610f1e57600019016128b3816000612572565b8154906000199060031b1b19169055600055600052600160205260006040812055600190565b6128fb6128ea612829936000612572565b90549060031b1c9283926000612572565b90556000526001602052604060002055388080612898565b505060009056fea164736f6c634300081e000a","linkReferences":{}},"methodIdentifiers":{"addModule(address)":"1ed86f19","addValidator(address)":"4d238c8e","authorizedRecoveryModules(address)":"0aa695a4","entryPoint()":"b0d691fe","execute(address,uint256,bytes)":"b61d27f6","executeBatch((address,uint256,bytes)[])":"34fcd5be","executeWithSessionKey(address,address,uint256,bytes,uint256)":"a7e0fd47","getModuleAt(uint256)":"0d0b6ff6","getModuleCount()":"57d56267","getModules()":"b2494df3","getValidators()":"b7ab4db5","isModule(address)":"42f6e389","isValidSignature(bytes32,bytes)":"1626ba7e","isValidator(address)":"facd743b","owner()":"8da5cb5b","removeModule(address)":"a0632461","removeValidator(address)":"40a141ff","setEntryPoint(address)":"584465f2","setRecoveryModule(address,bool)":"2b4a83f4","transferOwnership(address)":"f2fde38b","transferOwnershipFromRecovery(address,address)":"5d080c53","validateUserOp((address,uint256,bytes,bytes,uint256,uint256,uint256,uint256,uint256,bytes,bytes),bytes32,uint256)":"3a871cdd"},"id":32}