{"abi":[{"type":"constructor","inputs":[{"name":"_account","type":"address","internalType":"address"}],"stateMutability":"nonpayable"},{"type":"function","name":"GUARDIAN_ADDITION_DELAY","inputs":[],"outputs":[{"name":"","type":"uint256","internalType":"uint256"}],"stateMutability":"view"},{"type":"function","name":"RECOVERY_TIMELOCK","inputs":[],"outputs":[{"name":"","type":"uint256","internalType":"uint256"}],"stateMutability":"view"},{"type":"function","name":"account","inputs":[],"outputs":[{"name":"","type":"address","internalType":"address"}],"stateMutability":"view"},{"type":"function","name":"activateGuardian","inputs":[{"name":"guardian","type":"address","internalType":"address"}],"outputs":[],"stateMutability":"nonpayable"},{"type":"function","name":"activeRecovery","inputs":[],"outputs":[{"name":"newOwner","type":"address","internalType":"address"},{"name":"approvalCount","type":"uint256","internalType":"uint256"},{"name":"timestamp","type":"uint256","internalType":"uint256"},{"name":"executed","type":"bool","internalType":"bool"},{"name":"cancelled","type":"bool","internalType":"bool"}],"stateMutability":"view"},{"type":"function","name":"addGuardian","inputs":[{"name":"guardian","type":"address","internalType":"address"}],"outputs":[],"stateMutability":"nonpayable"},{"type":"function","name":"cancelRecovery","inputs":[],"outputs":[],"stateMutability":"nonpayable"},{"type":"function","name":"executeRecovery","inputs":[],"outputs":[],"stateMutability":"nonpayable"},{"type":"function","name":"getRecoveryRequest","inputs":[],"outputs":[{"name":"newOwner","type":"address","internalType":"address"},{"name":"approvalCount","type":"uint256","internalType":"uint256"},{"name":"timestamp","type":"uint256","internalType":"uint256"},{"name":"executable","type":"bool","internalType":"bool"}],"stateMutability":"view"},{"type":"function","name":"guardianCount","inputs":[],"outputs":[{"name":"","type":"uint256","internalType":"uint256"}],"stateMutability":"view"},{"type":"function","name":"guardians","inputs":[{"name":"","type":"address","internalType":"address"}],"outputs":[{"name":"isActive","type":"bool","internalType":"bool"},{"name":"isPending","type":"bool","internalType":"bool"},{"name":"addedAt","type":"uint256","internalType":"uint256"},{"name":"pendingSince","type":"uint256","internalType":"uint256"}],"stateMutability":"view"},{"type":"function","name":"hasApproved","inputs":[{"name":"","type":"address","internalType":"address"},{"name":"","type":"uint256","internalType":"uint256"}],"outputs":[{"name":"","type":"bool","internalType":"bool"}],"stateMutability":"view"},{"type":"function","name":"initiateRecovery","inputs":[{"name":"newOwner","type":"address","internalType":"address"}],"outputs":[],"stateMutability":"nonpayable"},{"type":"function","name":"isGuardian","inputs":[{"name":"guardian","type":"address","internalType":"address"}],"outputs":[{"name":"","type":"bool","internalType":"bool"}],"stateMutability":"view"},{"type":"function","name":"postExecute","inputs":[{"name":"caller","type":"address","internalType":"address"},{"name":"to","type":"address","internalType":"address"},{"name":"value","type":"uint256","internalType":"uint256"},{"name":"data","type":"bytes","internalType":"bytes"},{"name":"result","type":"bytes","internalType":"bytes"}],"outputs":[{"name":"","type":"bool","internalType":"bool"}],"stateMutability":"nonpayable"},{"type":"function","name":"preExecute","inputs":[{"name":"caller","type":"address","internalType":"address"},{"name":"to","type":"address","internalType":"address"},{"name":"value","type":"uint256","internalType":"uint256"},{"name":"data","type":"bytes","internalType":"bytes"}],"outputs":[{"name":"","type":"bool","internalType":"bool"}],"stateMutability":"nonpayable"},{"type":"function","name":"proposeGuardian","inputs":[{"name":"guardian","type":"address","internalType":"address"}],"outputs":[],"stateMutability":"nonpayable"},{"type":"function","name":"recoveryNonce","inputs":[],"outputs":[{"name":"","type":"uint256","internalType":"uint256"}],"stateMutability":"view"},{"type":"function","name":"removeGuardian","inputs":[{"name":"guardian","type":"address","internalType":"address"}],"outputs":[],"stateMutability":"nonpayable"},{"type":"function","name":"setThreshold","inputs":[{"name":"_threshold","type":"uint256","internalType":"uint256"}],"outputs":[],"stateMutability":"nonpayable"},{"type":"function","name":"supportRecovery","inputs":[],"outputs":[],"stateMutability":"nonpayable"},{"type":"function","name":"threshold","inputs":[],"outputs":[{"name":"","type":"uint256","internalType":"uint256"}],"stateMutability":"view"},{"type":"event","name":"GuardianAdded","inputs":[{"name":"guardian","type":"address","indexed":true,"internalType":"address"}],"anonymous":false},{"type":"event","name":"GuardianProposed","inputs":[{"name":"guardian","type":"address","indexed":true,"internalType":"address"}],"anonymous":false},{"type":"event","name":"GuardianRemoved","inputs":[{"name":"guardian","type":"address","indexed":true,"internalType":"address"}],"anonymous":false},{"type":"event","name":"RecoveryApproved","inputs":[{"name":"guardian","type":"address","indexed":true,"internalType":"address"},{"name":"nonce","type":"uint256","indexed":false,"internalType":"uint256"}],"anonymous":false},{"type":"event","name":"RecoveryCancelled","inputs":[{"name":"nonce","type":"uint256","indexed":false,"internalType":"uint256"}],"anonymous":false},{"type":"event","name":"RecoveryExecuted","inputs":[{"name":"oldOwner","type":"address","indexed":true,"internalType":"address"},{"name":"newOwner","type":"address","indexed":true,"internalType":"address"}],"anonymous":false},{"type":"event","name":"RecoveryInitiated","inputs":[{"name":"newOwner","type":"address","indexed":true,"internalType":"address"},{"name":"initiator","type":"address","indexed":true,"internalType":"address"},{"name":"nonce","type":"uint256","indexed":false,"internalType":"uint256"}],"anonymous":false},{"type":"event","name":"ThresholdChanged","inputs":[{"name":"newThreshold","type":"uint256","indexed":false,"internalType":"uint256"}],"anonymous":false}],"bytecode":{"object":"0x60803460ac57601f61154038819003918201601f19168301916001600160401b0383118484101760b15780849260209460405283398101031260ac57516001600160a01b0381169081900360ac578015607557600080546001600160a01b03191691909117905560405161147890816100c88239f35b60405162461bcd60e51b815260206004820152600f60248201526e125b9d985b1a59081858d8dbdd5b9d608a1b6044820152606490fd5b600080fd5b634e487b7160e01b600052604160045260246000fdfe608080604052600436101561001357600080fd5b600090813560e01c9081630633b14a146110e2575080630ba234d6146110645780630c68ba21146110255780631506ac5a146110075780631c189d1814610fbe57806320c5a3e114610dca57806342cde4e814610dac57806342f4dcdf14610c9d57806354387ad714610c7f5780635dab242014610c58578063627a5b1014610bf25780637140415614610a1e5780637d61fdc41461088f578063960bfe041461078e5780639aff6140146106e6578063a526d83b1461054a578063b2ec6e49146104f5578063b5cb7bb8146104a5578063c304555f1461031e578063d1bcccea14610300578063d5ce9aad146101335763ed894cd31461011357600080fd5b346101305780600319360112610130576020600554604051908152f35b80fd5b50346101305760203660031901126101305761014d611142565b338252600160205261016560ff6040842054166112f1565b6001600160a01b031680156102c7576008541580156102b8575b80156102ac575b156102745761019660055461132d565b60055560405160a0810181811067ffffffffffffffff821117610260578391608091604052838152600160208201524260408201528260608201520152806bffffffffffffffffffffffff60a01b600654161760065560016007554260085560ff196009541660095561ff001960095416600955338252600260205260408220600554835260205260408220600160ff19825416179055600554906040519182527fe290ea2cc3cfeb5114f992dc8be9e503de30042c13b9298644a2679b09e17a0460203393a380f35b634e487b7160e01b84526041600452602484fd5b60405162461bcd60e51b815260206004820152601060248201526f5265636f766572792070656e64696e6760801b6044820152606490fd5b5060ff60095416610186565b5060ff60095460081c1661017f565b60405162461bcd60e51b815260206004820152601160248201527024b73b30b634b2103732bb9037bbb732b960791b6044820152606490fd5b503461013057806003193601126101305760206040516203f4808152f35b503461013057602036600319011261013057610338611142565b81546001600160a01b03169061034f3383146111a1565b600854158015610499575b801561048a575b61036a90611352565b6001600160a01b03169061037f821515611390565b818352600160205261039860ff604085205416156113cf565b818352600160205260ff604084205460081c16610453576103bb9082141561140e565b6040516103c78161129d565b82815260026020820160018152604083018581526104226060850192428452868852600160205261040b6040892096511515879060ff801983541691151516179055565b51855461ff00191690151560081b61ff0016178555565b516001840155519101557f6909b1d56463f682c40530db32082355f6c36dede0bd4020093f6dc0a1abddb08280a280f35b60405162461bcd60e51b815260206004820152600f60248201526e416c72656164792070656e64696e6760881b6044820152606490fd5b5060095460081c60ff16610361565b5060ff6009541661035a565b503461013057806003193601126101305760a0600180821b036006541660ff60075460085460095491604051948552602085015260408401528181161515606084015260081c1615156080820152f35b50346101305760803660031901126101305761050f611142565b5061051861115d565b5060643567ffffffffffffffff811161054657610539903690600401611173565b5050602060405160018152f35b5080fd5b503461013057602036600319011261013057610564611142565b81546001600160a01b0316906105d09061057f3384146111a1565b6008541580156106da575b80156106cb575b61059a90611352565b6001600160a01b0316916105af831515611390565b82845260016020526105c860ff604086205416156113cf565b82141561140e565b6040516105dc8161129d565b60018152600260208201848152604083014281526106206060850192878452868852600160205261040b6040892096511515879060ff801983541691151516179055565b5160018401555191015561063560035461132d565b806003556001811460001461068e5750602060008051602061144c8339815191529160016004555b604051907f038596bb31e2e7d3d9f184d4c98b310103f6d7f5830e5eec32bffe6f1728f9698580a26004548152a180f35b60011c600181018091116106b75760008051602061144c8339815191529160209160045561065d565b634e487b7160e01b83526011600452602483fd5b5060095460081c60ff16610591565b5060ff6009541661058a565b503461013057806003193601126101305760018060a01b03600654166007546008546009549160ff831615928361077f575b5082610772575b82610742575b608094506040519384526020840152604083015215156060820152f35b91506202a300810180821161075e576080945042101591610725565b634e487b7160e01b85526011600452602485fd5b600454811015925061071f565b60081c60ff1615925038610718565b5034610130576020366003190112610130576004356107b760018060a01b0383541633146111a1565b600854158015610883575b8015610874575b6107d290611352565b801561083b5760035481116108015760208160008051602061144c83398151915292600455604051908152a180f35b60405162461bcd60e51b81526020600482015260126024820152710a8d0e4cae6d0ded8c840e8dede40d0d2ced60731b6044820152606490fd5b60405162461bcd60e51b8152602060048201526011602482015270125b9d985b1a59081d1a1c995cda1bdb19607a1b6044820152606490fd5b5060095460081c60ff166107c9565b5060ff600954166107c2565b5034610130576020366003190112610130576108a9611142565b600854158015610a12575b8015610a03575b6108c490611352565b6001600160a01b03168082526001602052604082205460081c60ff16156109cf57808252600160205260ff60408320541661099957808252600160205260026040832001546203f48081018091116106b757421061096457808252600160205260408220600160ff1982541617905580825260016020526040822061ff00198154169055808252600160205242600160408420015561063560035461132d565b60405162461bcd60e51b815260206004820152600d60248201526c11195b185e481b9bdd081b595d609a1b6044820152606490fd5b60405162461bcd60e51b815260206004820152600e60248201526d416c72656164792061637469766560901b6044820152606490fd5b60405162461bcd60e51b815260206004820152600c60248201526b139bdd081c1c9bdc1bdcd95960a21b6044820152606490fd5b5060095460081c60ff166108bb565b5060ff600954166108b4565b503461013057602036600319011261013057610a38611142565b610a4c60018060a01b0383541633146111a1565b600854158015610be6575b8015610bd7575b610a6790611352565b6001600160a01b03168082526001602052604082205460ff1615610ba1576003546001811115610b5c5760001981019081116106b75760045411610b1f57808252600160205260408220805460ff1916905560035480156106b75760001901806003558060045411610afc575b507fb8107d0c6b40be480ce3172ee66ba6d64b71f6b1685a851340036e6e2e3e3c528280a280f35b60208160008051602061144c83398151915292600455604051908152a138610ad4565b60405162461bcd60e51b815260206004820152601560248201527415dbdd5b1908189c99585ac81d1a1c995cda1bdb19605a1b6044820152606490fd5b60405162461bcd60e51b815260206004820152601b60248201527f43616e6e6f742072656d6f7665206c61737420677561726469616e00000000006044820152606490fd5b60405162461bcd60e51b815260206004820152600e60248201526d2737ba10309033bab0b93234b0b760911b6044820152606490fd5b5060095460081c60ff16610a5e565b5060ff60095416610a57565b50346101305760a036600319011261013057610c0c611142565b50610c1561115d565b5060643567ffffffffffffffff811161054657610c36903690600401611173565b505060843567ffffffffffffffff811161054657610539903690600401611173565b5034610130578060031936011261013057546040516001600160a01b039091168152602090f35b50346101305780600319360112610130576020600354604051908152f35b50346101305780600319360112610130573381526001602052610cc660ff6040832054166112f1565b610cd360085415156111dc565b610cf160ff600954610cea828260081c161561125c565b161561121d565b3381526002602052604081206005549081835260205260ff604083205416610d745733825260026020526040822090825260205260408120600160ff19825416179055610d3f60075461132d565b6007556005546040519081527f56f39088d9ede6ed9c5cc202888ed11dcbd4e5e85d63d648f1b73528efccb93a60203392a280f35b60405162461bcd60e51b815260206004820152601060248201526f105b1c9958591e48185c1c1c9bdd995960821b6044820152606490fd5b50346101305780600319360112610130576020600454604051908152f35b5034610130578060031936011261013057600854610de98115156111dc565b60095490610dfd60ff8360081c161561125c565b610e0a60ff83161561121d565b60075460045411610f80576202a30081018091116106b7574210610f44578154604051638da5cb5b60e01b81529083906001600160a01b0316602083600481845afa928315610f39578293610ef5575b506001808060a01b03600654169460ff191617600955803b15610546578190604460405180948193635d080c5360e01b83528860048401523060248401525af18015610eea57610ed6575b506001600160a01b03167f60f9f98be64687700419cfa6fdd7877bc88c6daeb10bc664a2be9fdd6b0c79218380a380f35b83610ee3919492946112cf565b9138610ea5565b6040513d86823e3d90fd5b9092506020813d602011610f31575b81610f11602093836112cf565b8101031261054657516001600160a01b0381168103610546579138610e5a565b3d9150610f04565b6040513d84823e3d90fd5b60405162461bcd60e51b8152602060048201526014602482015273151a5b595b1bd8dac81b9bdd08195e1c1a5c995960621b6044820152606490fd5b60405162461bcd60e51b8152602060048201526016602482015275496e73756666696369656e7420617070726f76616c7360501b6044820152606490fd5b50346101305760403660031901126101305760209060ff906040906001600160a01b03610fe9611142565b16815260028452818120602435825284522054166040519015158152f35b503461013057806003193601126101305760206040516202a3008152f35b50346101305760203660031901126101305760209060ff906040906001600160a01b03611050611142565b168152600184522054166040519015158152f35b503461013057806003193601126101305761108960018060a01b0382541633146111a1565b61109660085415156111dc565b6101006009546110a960ff82161561121d565b61ff001916176009557f02019f620969ef34023e1048f0b0f0e1c337f94acda5cfad6aaceb56989674556020600554604051908152a180f35b905034610546576020366003190112610546576080916040906001600160a01b0361110b611142565b16815260016020522080549060ff60026001830154920154928181161515855260081c161515602084015260408301526060820152f35b600435906001600160a01b038216820361115857565b600080fd5b602435906001600160a01b038216820361115857565b9181601f840112156111585782359167ffffffffffffffff8311611158576020838186019501011161115857565b156111a857565b60405162461bcd60e51b815260206004820152600c60248201526b13db9b1e481858d8dbdd5b9d60a21b6044820152606490fd5b156111e357565b60405162461bcd60e51b81526020600482015260126024820152714e6f20616374697665207265636f7665727960701b6044820152606490fd5b1561122457565b60405162461bcd60e51b815260206004820152601060248201526f105b1c9958591e48195e1958dd5d195960821b6044820152606490fd5b1561126357565b60405162461bcd60e51b8152602060048201526012602482015271149958dbdd995c9e4818d85b98d95b1b195960721b6044820152606490fd5b6080810190811067ffffffffffffffff8211176112b957604052565b634e487b7160e01b600052604160045260246000fd5b90601f8019910116810190811067ffffffffffffffff8211176112b957604052565b156112f857565b60405162461bcd60e51b815260206004820152600d60248201526c27b7363c9033bab0b93234b0b760991b6044820152606490fd5b600019811461133c5760010190565b634e487b7160e01b600052601160045260246000fd5b1561135957565b60405162461bcd60e51b815260206004820152600f60248201526e5265636f766572792061637469766560881b6044820152606490fd5b1561139757565b60405162461bcd60e51b815260206004820152601060248201526f24b73b30b634b21033bab0b93234b0b760811b6044820152606490fd5b156113d657565b60405162461bcd60e51b815260206004820152601060248201526f20b63932b0b23c9033bab0b93234b0b760811b6044820152606490fd5b1561141557565b60405162461bcd60e51b815260206004820152600e60248201526d21b0b73737ba1031329039b2b63360911b6044820152606490fdfe6c4ce60fd690e1216286a10b875c5662555f10774484e58142cedd7a90781baaa164736f6c634300081e000a","linkReferences":{}},"methodIdentifiers":{"GUARDIAN_ADDITION_DELAY()":"d1bcccea","RECOVERY_TIMELOCK()":"1506ac5a","account()":"5dab2420","activateGuardian(address)":"7d61fdc4","activeRecovery()":"b5cb7bb8","addGuardian(address)":"a526d83b","cancelRecovery()":"0ba234d6","executeRecovery()":"20c5a3e1","getRecoveryRequest()":"9aff6140","guardianCount()":"54387ad7","guardians(address)":"0633b14a","hasApproved(address,uint256)":"1c189d18","initiateRecovery(address)":"d5ce9aad","isGuardian(address)":"0c68ba21","postExecute(address,address,uint256,bytes,bytes)":"627a5b10","preExecute(address,address,uint256,bytes)":"b2ec6e49","proposeGuardian(address)":"c304555f","recoveryNonce()":"ed894cd3","removeGuardian(address)":"71404156","setThreshold(uint256)":"960bfe04","supportRecovery()":"42f4dcdf","threshold()":"42cde4e8"},"id":40}