{"abi":[{"type":"constructor","inputs":[{"name":"_account","type":"address","internalType":"address"}],"stateMutability":"nonpayable"},{"type":"function","name":"account","inputs":[],"outputs":[{"name":"","type":"address","internalType":"address"}],"stateMutability":"view"},{"type":"function","name":"bypassEnabledUntil","inputs":[],"outputs":[{"name":"","type":"uint256","internalType":"uint256"}],"stateMutability":"view"},{"type":"function","name":"disableOwnerBypass","inputs":[],"outputs":[],"stateMutability":"nonpayable"},{"type":"function","name":"enableOwnerBypass","inputs":[{"name":"duration","type":"uint256","internalType":"uint256"}],"outputs":[],"stateMutability":"nonpayable"},{"type":"function","name":"getEthLimit","inputs":[],"outputs":[{"name":"cap","type":"uint256","internalType":"uint256"},{"name":"spent","type":"uint256","internalType":"uint256"},{"name":"remaining","type":"uint256","internalType":"uint256"},{"name":"resetsAt","type":"uint256","internalType":"uint256"}],"stateMutability":"view"},{"type":"function","name":"isBypassActive","inputs":[],"outputs":[{"name":"","type":"bool","internalType":"bool"}],"stateMutability":"view"},{"type":"function","name":"limits","inputs":[{"name":"token","type":"address","internalType":"address"}],"outputs":[{"name":"cap","type":"uint256","internalType":"uint256"},{"name":"windowStart","type":"uint64","internalType":"uint64"},{"name":"spentInWindow","type":"uint256","internalType":"uint256"},{"name":"decimals","type":"uint8","internalType":"uint8"},{"name":"isNormalized","type":"bool","internalType":"bool"}],"stateMutability":"view"},{"type":"function","name":"ownerBypassEnabled","inputs":[],"outputs":[{"name":"","type":"bool","internalType":"bool"}],"stateMutability":"view"},{"type":"function","name":"postExecute","inputs":[{"name":"","type":"address","internalType":"address"},{"name":"","type":"address","internalType":"address"},{"name":"","type":"uint256","internalType":"uint256"},{"name":"","type":"bytes","internalType":"bytes"},{"name":"","type":"bytes","internalType":"bytes"}],"outputs":[{"name":"","type":"bool","internalType":"bool"}],"stateMutability":"nonpayable"},{"type":"function","name":"preExecute","inputs":[{"name":"caller","type":"address","internalType":"address"},{"name":"target","type":"address","internalType":"address"},{"name":"value","type":"uint256","internalType":"uint256"},{"name":"data","type":"bytes","internalType":"bytes"}],"outputs":[{"name":"","type":"bool","internalType":"bool"}],"stateMutability":"nonpayable"},{"type":"function","name":"preExecuteBatch","inputs":[{"name":"caller","type":"address","internalType":"address"},{"name":"totalEthValue","type":"uint256","internalType":"uint256"}],"outputs":[],"stateMutability":"nonpayable"},{"type":"function","name":"removeEthLimit","inputs":[],"outputs":[],"stateMutability":"nonpayable"},{"type":"function","name":"setEthLimit","inputs":[{"name":"cap","type":"uint256","internalType":"uint256"}],"outputs":[],"stateMutability":"nonpayable"},{"type":"function","name":"setLimit","inputs":[{"name":"token","type":"address","internalType":"address"},{"name":"cap","type":"uint256","internalType":"uint256"}],"outputs":[],"stateMutability":"nonpayable"},{"type":"function","name":"setLimitWithDecimals","inputs":[{"name":"token","type":"address","internalType":"address"},{"name":"cap","type":"uint256","internalType":"uint256"},{"name":"decimals","type":"uint8","internalType":"uint8"}],"outputs":[],"stateMutability":"nonpayable"},{"type":"function","name":"wouldExceedEthLimit","inputs":[{"name":"amount","type":"uint256","internalType":"uint256"}],"outputs":[{"name":"wouldExceed","type":"bool","internalType":"bool"}],"stateMutability":"view"},{"type":"event","name":"BypassToggled","inputs":[{"name":"enabled","type":"bool","indexed":false,"internalType":"bool"}],"anonymous":false},{"type":"event","name":"EthLimitExceeded","inputs":[{"name":"attempted","type":"uint256","indexed":false,"internalType":"uint256"},{"name":"cap","type":"uint256","indexed":false,"internalType":"uint256"}],"anonymous":false},{"type":"event","name":"EthSpent","inputs":[{"name":"spender","type":"address","indexed":true,"internalType":"address"},{"name":"amount","type":"uint256","indexed":false,"internalType":"uint256"}],"anonymous":false},{"type":"event","name":"LimitBypassed","inputs":[{"name":"owner","type":"address","indexed":true,"internalType":"address"},{"name":"token","type":"address","indexed":true,"internalType":"address"},{"name":"amount","type":"uint256","indexed":false,"internalType":"uint256"}],"anonymous":false},{"type":"event","name":"LimitExceeded","inputs":[{"name":"token","type":"address","indexed":true,"internalType":"address"},{"name":"attempted","type":"uint256","indexed":false,"internalType":"uint256"},{"name":"cap","type":"uint256","indexed":false,"internalType":"uint256"}],"anonymous":false},{"type":"event","name":"LimitSet","inputs":[{"name":"token","type":"address","indexed":true,"internalType":"address"},{"name":"cap","type":"uint256","indexed":false,"internalType":"uint256"}],"anonymous":false},{"type":"event","name":"Spent","inputs":[{"name":"token","type":"address","indexed":true,"internalType":"address"},{"name":"newSpent","type":"uint256","indexed":false,"internalType":"uint256"}],"anonymous":false},{"type":"error","name":"SpendingLimitExceeded","inputs":[]}],"bytecode":{"object":"0x60a0346100db57601f61119438819003918201601f19168301916001600160401b038311848410176100e0578084926020946040528339810103126100db57516001600160a01b0381168082036100db57156100a75760805260405161109d90816100f7823960805181818160e2015281816102f00152818161043d015281816104b00152818161059b015281816106d10152818161079b015281816109c90152610edd0152f35b60405162461bcd60e51b815260206004820152600c60248201526b1e995c9bc81858d8dbdd5b9d60a21b6044820152606490fd5b600080fd5b634e487b7160e01b600052604160045260246000fdfe6080604052600436101561001257600080fd5b60003560e01c8062fd636c146108f057806320d7bec11461087b57806334dc6ced14610858578063350867531461076e57806336db43b51461069b57806346484deb1461067d5780634c916531146105845780635a10a8681461046c5780635dab242014610427578063627a5b10146103b75780637f7da204146102d65780638233cf8e146102bb5780638effb83f1461029d578063ad6748aa146101af578063b2ec6e49146101515763b764df97146100cb57600080fd5b3461014c57600036600319011261014c57610110337f00000000000000000000000000000000000000000000000000000000000000006001600160a01b031614610bcc565b60ff196001541660015560006002557ffe1b564b3e87f692416d021f9f8012e49624f6fb72a2c3dbeae2c44441584645602060405160008152a1005b600080fd5b3461014c57608036600319011261014c5761016a610917565b61017261092d565b90606435906001600160401b03821161014c576020926101996101a5933690600401610943565b92909160443591610cbe565b6040519015158152f35b3461014c57600036600319011261014c57600080805260208190527fad3228b676f7d3cd4284a5443f17f1962b36e491b30a40b2405849e597ba5fb580547fad3228b676f7d3cd4284a5443f17f1962b36e491b30a40b2405849e597ba5fb7549290918184841115610289575083830393838511610273576001600160401b036001608096935b01541680610257575b50604051938452602084015260408301526060820152f35b6001600160401b0391935061026b90610c06565b16918561023f565b634e487b7160e01b600052601160045260246000fd5b936001600160401b03600160809693610236565b3461014c57600036600319011261014c576020600254604051908152f35b3461014c57600036600319011261014c5760206101a5610ca6565b3461014c57602036600319011261014c5760043561031e337f00000000000000000000000000000000000000000000000000000000000000006001600160a01b031614610bcc565b801515806103aa575b156103725761034290600160ff198154161760015542610c26565b6002557ffe1b564b3e87f692416d021f9f8012e49624f6fb72a2c3dbeae2c44441584645602060405160018152a1005b60405162461bcd60e51b815260206004820152601060248201526f24b73b30b634b210323ab930ba34b7b760811b6044820152606490fd5b5062015180811115610327565b3461014c5760a036600319011261014c576103d0610917565b506103d961092d565b506064356001600160401b03811161014c576103f9903690600401610943565b50506084356001600160401b03811161014c5761041a903690600401610943565b5050602060405160018152f35b3461014c57600036600319011261014c576040517f00000000000000000000000000000000000000000000000000000000000000006001600160a01b03168152602090f35b3461014c57606036600319011261014c57610485610917565b6024356044359160ff831680930361014c57600080516020611071833981519152916020916104de337f00000000000000000000000000000000000000000000000000000000000000006001600160a01b031614610bcc565b60018060a01b031693846000526000835281604060002055846000526000835260036040600020019060ff198254161790558360005260008252600360406000200161010061ff001982541617905583600052600082526001600160401b036001604060002001541615610556575b604051908152a2005b600084815280835260409020600101805467ffffffffffffffff1916426001600160401b031617905561054d565b3461014c57600036600319011261014c576105c9337f00000000000000000000000000000000000000000000000000000000000000006001600160a01b031614610bcc565b600080805260208181527fad3228b676f7d3cd4284a5443f17f1962b36e491b30a40b2405849e597ba5fb58290557fad3228b676f7d3cd4284a5443f17f1962b36e491b30a40b2405849e597ba5fb68290557fad3228b676f7d3cd4284a5443f17f1962b36e491b30a40b2405849e597ba5fb78290557fad3228b676f7d3cd4284a5443f17f1962b36e491b30a40b2405849e597ba5fb88290556040518281526000805160206110718339815191529190a2005b3461014c57602036600319011261014c5760206101a5600435610c33565b3461014c57604036600319011261014c576106b4610917565b60243590600080516020611071833981519152906020906106ff337f00000000000000000000000000000000000000000000000000000000000000006001600160a01b031614610bcc565b6001600160a01b0316600081815280835260408082208690558282528184528082206003908101805460ff1916601217905583835282855281832001805461ff0019166101001790558282528184529020600101549093906001600160401b03161561055657604051908152a2005b3461014c57602036600319011261014c57600060008051602061107183398151915260206004356107c9337f00000000000000000000000000000000000000000000000000000000000000006001600160a01b031614610bcc565b83805283825280604085205583805283825260036040852001601260ff198254161790558380528382526003604085200161010061ff00198254161790558380528382526001600160401b036001604086200154161561082c57604051908152a2005b83805283825260408420600101805467ffffffffffffffff1916426001600160401b031617905561054d565b3461014c57600036600319011261014c57602060ff600154166040519015158152f35b3461014c57602036600319011261014c576001600160a01b0361089c610917565b16600052600060205260a0604060002060ff8154916001600160401b0360018201541690600360028201549101549160405194855260208501526040840152818116606084015260081c1615156080820152f35b3461014c57604036600319011261014c5761091561090c610917565b602435906109c6565b005b600435906001600160a01b038216820361014c57565b602435906001600160a01b038216820361014c57565b9181601f8401121561014c578235916001600160401b03831161014c576020838186019501011161014c57565b90601f801991011681019081106001600160401b0382111761099157604052565b634e487b7160e01b600052604160045260246000fd5b9081602091031261014c57516001600160a01b038116810361014c5790565b907f00000000000000000000000000000000000000000000000000000000000000006001600160a01b031633819003610b9857610a01610ca6565b9081610b1e575b50610af55780610a16575050565b6000805260006020526040600020918254610a3057505050565b610a3983610f49565b60028301828154019354808511610ab457508390556040519182526000927fd3eec71143c45f28685b24760ea218d476917aa0ac0392a55e5304cef40bd2b6926020926001600160a01b0316907f71ab8f27d62c269241d726c497e2eda24c4be7115703c1e6171aff3eb7aaa60e908490a2604051908152a2565b6040857ffdc5ba18988bf8e6ea75287a857f331b2eb73f58514b017ffc3c10be37d27d579282519182526020820152a163454f38f560e11b60005260046000fd5b6040519081526000916001600160a01b03169060008051602061105183398151915290602090a3565b604051638da5cb5b60e01b81529150602090829060049082905afa908115610b8c57600091610b5d575b506001600160a01b0383811691161438610a08565b610b7f915060203d602011610b85575b610b778183610970565b8101906109a7565b38610b48565b503d610b6d565b6040513d6000823e3d90fd5b60405162461bcd60e51b815260206004820152600c60248201526b13db9b1e481858d8dbdd5b9d60a21b6044820152606490fd5b15610bd357565b60405162461bcd60e51b815260206004820152600b60248201526a1b9bdd081858d8dbdd5b9d60aa1b6044820152606490fd5b6001600160401b0362015180911601906001600160401b03821161027357565b9190820180921161027357565b60008080526020527fad3228b676f7d3cd4284a5443f17f1962b36e491b30a40b2405849e597ba5fb58054918215610c9e57816001600160401b03610c858160016002610c9297015494015416610c06565b16421015610c9657610c26565b1190565b506000610c26565b505050600090565b60ff6001541680610cb45790565b5060025442111590565b90929391610cca610ca6565b80610ec7575b610dde5780610d38575b5050600411610d315781356001600160e01b03191663a9059cbb60e01b8114610d22576323b872dd60e01b14610d11575050600190565b6044610d1f92013590610fa1565b90565b506024610d1f92013590610fa1565b5050600190565b6000805260006020526040600020918254610d54575b50610cda565b610d5d83610f49565b60028301828154019354808511610ab45750836000937f71ab8f27d62c269241d726c497e2eda24c4be7115703c1e6171aff3eb7aaa60e60207fd3eec71143c45f28685b24760ea218d476917aa0ac0392a55e5304cef40bd2b6956004999882965560405193845260018060a01b031692a2604051908152a2903880610d4e565b9182604492959493610e99575b501015610dfb575b505050600190565b81356001600160e01b03191663a9059cbb60e01b8103610e4d57506040516024929092013582526001600160a01b0390811692169060008051602061105183398151915290602090a35b388080610df3565b6323b872dd60e01b14610e63575b505050610e45565b6040516044929092013582526001600160a01b0390811692169060008051602061105183398151915290602090a3388080610e5b565b6040519081526000906001600160a01b0387169060008051602061105183398151915290602090a338610deb565b50604051638da5cb5b60e01b81526020816004817f00000000000000000000000000000000000000000000000000000000000000006001600160a01b03165afa908115610b8c57600091610f2a575b506001600160a01b03838116911614610cd0565b610f43915060203d602011610b8557610b778183610970565b38610f16565b600181016001600160401b0381541615610f7d576001600160401b03610f7181835416610c06565b16421015610f7d575050565b805467ffffffffffffffff1916426001600160401b03161790556000600290910155565b60018060a01b031690816000526000602052604060002090815415610df357610fc982610f49565b6002820190815401915480831161100e5750817fd3eec71143c45f28685b24760ea218d476917aa0ac0392a55e5304cef40bd2b69260209255604051908152a2600190565b7f4db9e254c32cd81a761f19f2ea0ecf598996de9125f7a124deaa0b263a049f49604084869382519182526020820152a263454f38f560e11b60005260046000fdfe8ff0b3b79930a5716f003907e20a24f8fadea1b34ec48f714cd1471861097ca27c58a37f777debac83af499c37671e7cae62b9f980fc308c95593364b228c0f4a164736f6c634300081e000a","linkReferences":{}},"methodIdentifiers":{"account()":"5dab2420","bypassEnabledUntil()":"8effb83f","disableOwnerBypass()":"b764df97","enableOwnerBypass(uint256)":"7f7da204","getEthLimit()":"ad6748aa","isBypassActive()":"8233cf8e","limits(address)":"20d7bec1","ownerBypassEnabled()":"34dc6ced","postExecute(address,address,uint256,bytes,bytes)":"627a5b10","preExecute(address,address,uint256,bytes)":"b2ec6e49","preExecuteBatch(address,uint256)":"00fd636c","removeEthLimit()":"4c916531","setEthLimit(uint256)":"35086753","setLimit(address,uint256)":"36db43b5","setLimitWithDecimals(address,uint256,uint8)":"5a10a868","wouldExceedEthLimit(uint256)":"46484deb"},"id":41}